:10000000FF004C6174746963650069434563756200
:10001000653220323031342E30342E3235383130A2
:1000200000506172743A2069434534304C50314B72
:100030002D434D343900446174653A204F63742078
:10004000323020323031342031363A33383A00FF02
:100050003338007EAA997E5100010592002062018A
:100060004B720090820000110001010000000000AE
:100070000000000000000000000000000000000080
:1000800000000000000000000000000000008000F0
:100090000000000000000000000000000000000060
:1000A0000000000000000000000000000000000050
:1000B0000000000000000000000000000000000040
:1000C0000000000000000000000000000000000030
:1000D0000000000000000000000000000000000020
:1000E00000400000000000000000000000000000D0
:1000F0000000000000000000000000000000000000
:1001000000000000000000000000000000000000EF
:1001100000000000000000000000000000000000DF
:1001200000000000000000000000000000000000CF
:10013000000000008000000000000000000000003F
:1001400000000000000000000000000000000000AF
:10015000000000000000000000000000000000009F
:10016000001000000000000000040000000000007B
:10017000100000000000004000000000100000001F
:10018000000000400000000000010000000000002E
:10019000000000000000000000000000000000005F
:1001A000000000000000000000000000000000004F
:1001B000000000000000000000000000040000003B
:1001C00000000010000000000000400000000010CF
:1001D00000000000000040000000000003000000DC
:1001E000000000000000000000000000000000000F
:1001F00000000000000000000000000000000000FF
:1002000000000000000000000000000000000000EE
:1002100000000000000000000000000000000000DE
:1002200000000000000000000000000000000000CE
:1002300000000000000000000000000000000000BE
:1002400000000000000000000000000000000000AE
:10025000000000000000000000000000000000009E
:10026000000000000000000000000000000000008E
:10027000000000000000000000000000000000007E
:10028000000000000000000000000000000000006E
:10029000000000000000000000000000000000005E
:1002A000000000000000000000040000000000004A
:1002B000000000000000000000000000000000003E
:1002C000000000000000000000000000000000002E
:1002D00000000040000000000000000000000000DE
:1002E000000000000000000000000000000000000E
:1002F00000000000000000000000000000003000CE
:1003000000000000000000000000000000000000ED
:1003100000000000000000000000000000000000DD
:1003200000000000000000000400000000000000C9
:10033000000000000000000000000000004000007D
:1003400000000000000000000000000000000000AD
:10035000000200000000000000000000000000009B
:10036000000000000000000000000000000000008D
:1003700000038005800000000E00000408F040002B
:10038000000000000000000000000000000000006D
:100390000000000000000000000000200008000035
:1003A0000000800003810F04100000000000000026
:1003B000000000000000000000000000000000003D
:1003C000000000000000000000000001000002002A
:1003D0005A40000000000000000000000000000083
:1003E000000000000000000000000000000000000D
:1003F0000000000000100000240A54000002000069
:1004000000000000000000000000000000000000EC
:1004100000000000000000000000000000000000DC
:1004200000000000000000000000000000000000CC
:1004300000000000000000000000000000000000BC
:1004400000000000000000000000000000000000AC
:10045000000000000000000000000000000000009C
:100460000000000000000000000000000000063C4A
:10047000100000000000000000002000000000004C
:10048000000000000000000000000000000000006C
:10049000000000000000000003C104000000000094
:1004A000000000000000000000000000000000004C
:1004B000000000000000000000000000000000003C
:1004C000000000000000000000000000000000002C
:1004D000000000000000000000000000000000001C
:1004E000000000000000000000000000000000000C
:1004F00000000000000000000000000000000000FC
:1005000000000000000000000000000000000000EB
:1005100000000000000000000000000000000000DB
:1005200000000000000000000000000000000000CB
:1005300000000000000000000000000000000000BB
:1005400000000000000000000000000000000000AB
:10055000000000000000000000000000000000009B
:100560000000000100000000000004000000000086
:10057000000000000000000000000000000000007B
:10058000000000000000000000000000002000004B
:1005900000000000800000000000000000000000DB
:1005A000000000000000000000000000000000004B
:1005B0000002002EEA00000000005B0800000000BE
:1005C000000000000000000000000000000000002B
:1005D00000000000000000000000001C02400000BD
:1005E0004000000BB000010000000000000000000F
:1005F00000000000000000000000000000000000FB
:10060000000000000000400000038000000703D04D
:1006100000000000000000000000000000000000DA
:100620000000000000000000000000000000003C8E
:1006300000000020000000403F010000000000001A
:1006400000000000000000000000000000000000AA
:100650000000000000000000000000000000019801
:1006600036C900000000000000000000000000008B
:10067000000000000000000000000000000000007A
:100680000000000000000000080D38800400000099
:100690000000000000020000000000000000000058
:1006A00000000000000000000000000004F08000D6
:1006B0000009800683D00001400000000000000017
:1006C000000000000000000000000000000000002A
:1006D000000000000000DD0000400010B0003F00FE
:1006E000001C0000000000000000000000000000EE
:1006F0000000000000000000000000001001600089
:100700000000000009807EA95000000000000000E9
:1007100000002000000000000000000000000000B9
:100720000000000000000002000000000000F08552
:1007300083C1000A0000000000000000000000006B
:1007400000000000000000000000000000000000A9
:10075000056300000000000001D6A9504000000021
:100760000000000000000000000000000000000089
:1007700000000000000000000000804000000000B9
:100780000000DF03C1840000000000000000000042
:100790000000000000000040000000000000000019
:1007A00000000000030000000000000000295020AD
:1007B0000000000000000000000000000000000039
:1007C000000000000000000000000000000C4000DD
:1007D000000000000005016900004000000000006A
:1007E00000000000000000000008040000000000FD
:1007F0000000000000000000000000010003810074
:1008000000000000000000000000000000000000E8
:100810000000004080000000000000000000000018
:10082000000000000020000880000000021000000E
:1008300000000000000000000000000000000300B5
:100840000000000000000000000062C4EFF00000A3
:1008500020185F00001000003D680000000000004C
:100860000000000000000000400000000040000008
:10087000000000027F5EFB1000000005BC100000BD
:1008800000C275F800000000000000000000000039
:100890000000000000000000000000E000003C84B8
:1008A0002403E007815602000000007E485A000041
:1008B0000000000000000000000000000000000038
:1008C00000000000080000035DA170603008BFF068
:1008D000000000A002AD05010000000000000000C3
:1008E0000000000000000000000000000000000008
:1008F000061DB07404000B9E5A00408040006378CF
:1009000005000000000000000000000000000000E2
:1009100000000000000000000000027F0341000012
:10092000390B4000000800C43F00F2000002000044
:1009300000000000000000003EE4A00000000000F5
:100940000000000320D10604000800F2BD400000B2
:10095000206558100040000000000000000000006A
:100960000001E9CF00000000000000002C634A20D5
:10097000414005108F8280000003C717EA00040081
:1009800000000000000000000000001DEC20A0009E
:1009900000000000000A062E808200080701FE0207
:1009A000800020B669FAA5000000200000000000C9
:1009B000000000000010C200000000000000003C29
:1009C00002FB0000000000CF000000040143B6FE5F
:1009D00050040000000000000000000000000000C3
:1009E000000000000000000000467EC0A0000003E0
:1009F0008000000000002038EC80000000000000B3
:100A000000000000000000000000000000000000E6
:100A10000000022340A500000008000000000001C3
:100A2000402CF0000000000000000000000000006A
:100A3000400000000000000000000000607FE8159A
:100A40002008000AD7A9500008A027EC8003000066
:100A50000000000000000000002400000000000072
:100A600000000000000021E0C1400100019743C1E7
:100A7000020004C6B40002000000000000000000F4
:100A8000000000070000000000000000004801C650
:100A900076D00519200B89000000000020760C3864
:100AA0000200000000000000000000001C780000B0
:100AB000000000000000084C1D236C80402100B1A4
:100AC000800000000081C21503408000000000008B
:100AD0000000000000000000000000000000000016
:100AE0000008060C80A000000788132640000004C0
:100AF0006A5CA70000000000000000000000000089
:100B000000000000000000000000003424300A084B
:100B10000000D90FFA4C0000002416FFF00000007E
:100B200000000000000000E000002005A50000001B
:100B3000000000E0000034C4002380580E0730108D
:100B400080002002DC000200000000000000000025
:100B500008000000C0A5C900000000000800000057
:100B6000E081002002B0000301000003401E00806D
:100B70000000000000000000000000000000000075
:100B80000000000000000402020CA1A22003850066
:100B9000F7895000420E3A4A0000000000000000B1
:100BA0000000000200000000000000080000000239
:100BB000001C40403F0008000803E101002000261F
:100BC000C5B40000000200000000000000000000AA
:100BD0000000000000000000000001401CAA1600F8
:100BE00020480097001010413E68CBC00000000074
:100BF00000000000000000000000000000000000F5
:100C0000000000003601798170411A500F03C104C1
:100C10000003402CAC200000000000000000000099
:100C2000000000000000000000000000000243255A
:100C3000C0A30001001816280000E2203DDEC70214
:100C40000000200000000000000000000000000084
:100C5000000000000000002C42E000010200010042
:100C60004280000E15C61F0E70000000000000003C
:100C70000000000000400000000000000000000034
:100C8000006065A0A40800498002B014C0002601DD
:100C9000FA5000000000000000000000000000000A
:100CA00000000000000000000000242160006140FE
:100CB00000109003018000004003050000000000C8
:100CC0000000000000000000000000000000000024
:100CD0000000040803BDF1850000218BFF51C00016
:100CE0000E9C7C00000000000000000000000000DE
:100CF000000000000000000000000000000068EF9D
:100D00000440C200018B3ABC000010024000000009
:100D1000000004000000000000400000000000008F
:100D2000000000000040000200000001000301BEBE
:100D30000B808100202C000000000000400000001B
:100D400000000A00000000000000000000000A008F
:100D50002440000000280090D582B4003003C70072
:100D60000000000000000000100000000000000073
:100D70000000000800000000000042A58080000381
:100D8000851916480000802601DCA04000002000E4
:100D9000000A000000000000000000000040000009
:100DA0000000000401EE00000001008F78900004B4
:100DB00000400405F4000000000080000000000076
:100DC0000000000000000000000000E0054604EA0A
:100DD000560380591D321C408E40007DFCAF4008F8
:100DE00000000005000000000000000000000000FE
:100DF0000000000008008003C0F060E00219ADC3ED
:100E0000C0008A0002870504000000040000000002
:100E100000000000000000000000000000000008CA
:100E200006C00A540000238806B010A00000005A33
:100E3000880000000000000000000000000000002A
:100E4000000000000000000201007C405A40C80081
:100E500001A00301042000003D81101000010000EA
:100E6000000163D44000000000000000000000000A
:100E7000000000021DEF521028000083A81000801F
:100E80000027EC0002000800000000083D400000C0
:100E9000000000000000000000000000000010F54D
:100EA00000000050E5014101040007AC040000000F
:100EB000000000000000000000C000000000000072
:100EC00000000000000003E6C520000000189300A9
:100ED0000000001C78CCC7020000000000000000E9
:100EE0000002000000000000000000000000000000
:100EF00037DE720002000189C0140010C1E00E0C40
:100F000030000000000000000000000000000000B1
:100F10000000000000000000000256ACB00000100D
:100F200018D2E14000001E2B781C020000000000D7
:100F300000000000000000000000000000000000B1
:100F4000000C006378C300001A0001791C00000047
:100F500026A703C000000000000000000000000001
:100F60000000000000000000000000006047C18594
:100F70003800219F073CC0800000380000000800B6
:100F8000000000000000000200000000000000005F
:100F900000000000004022F00840802400F043CC14
:100FA00000000244000000000000000000000000FB
:100FB00000000000000000000000000000400043AE
:100FC0009FC1A00100090056680004001420000021
:100FD0000000000000000000000000000000000011
:100FE0000000000000000A0000437D2F0028009050
:100FF0000FAC9000A0000400000000000000000002
:1010000000000000000000000000000000000000E0
:101010000403E764EA541010000A96000400000E6E
:1010200068D8F5000000000000000000000000800B
:101030000000000000000000000020067AC9E5C0A2
:10104000808000ABB81000000024360FF0100000C4
:101050000000000000000000000000000000000090
:10106000000000E000404000000380271B1A4010F1
:101070000E085E000AC00200000000000000000030
:10108000000000000000000000000000080002381E
:10109000000000200170E37E010180FA42C00C00D4
:1010A0000000000000000000000000000000000040
:1010B000000040000000040002E6A5F00008000067
:1010C000B3141200001E30FEEF428000000000004A
:1010D0000000000000000000000000000000000010
:1010E000200031D00F000000000171010400002435
:1010F0001D0FF400000200000000000000000000CE
:1011000000000000000000000000000615807224AE
:1011100000280196294000001E00EA1A6000000025
:1011200000000000000000000000000000000000BF
:101130000000000C34283007000001108582A80050
:1011400000002006F0050000000000000000000084
:1011500000000000000000000000000004E9C0568C
:10116000A1A00003D918F300DAC02020606C0800A9
:10117000000020000000000000000000000000004F
:101180000000000000000142387B00008003B00135
:101190000005000081C00DE000800000000000009C
:1011A000000000000000000000000000000000003F
:1011B000000224CAF00000080136009000011C045F
:1011C0006C0A0000000000000000000000000000A9
:1011D000000000000000000000000433D0F5010012
:1011E00000709336050100E803EC000000000000E9
:1011F00000000000000000C000000000000000002F
:1012000000000602C017D08000004980B6D09000D0
:10121000401E07DE81020000000000000000000008
:10122000000000000000000000000000A03C01D908
:1012300000010002B003654900026342540C100033
:10124000000000000000000000000000000000009E
:1012500040000000004000400FA4240100150BFFD7
:10126000E88004800401F8B50200000000000000DE
:101270000000000000000000000400000000080062
:101280000220D9524020020099AE28008003E3E5F5
:101290000FF000000000000000000000000000004F
:1012A0000000000000000000000062E4B0800000C8
:1012B0002809F3004000000060FC55000000000019
:1012C00000000000000000000000000000400000DE
:1012D0000000000024CA0000400430C134000000B7
:1012E000000242055000000000000000000000E085
:1012F0000000000000000000000000E0000015C336
:101300004407800D9D16A9500E0020047A5A024011
:1013100000000000000000000000000000000000CD
:101320000000000008005C246D3070200010C30332
:10133000C122C002C2A40A10000000000000000088
:10134000000000000000000000000000000000009D
:1013500047A4A08000000118B611C000000007CA11
:101360000A00000000000000000000000000000073
:101370000000000000000000001440C90000000050
:1013800070016D7C0200E0037700000000020000A5
:10139000000000000000000000000000000000004D
:1013A000000000406FE40020000380001690400021
:1013B000067ADC402240000000000000000000002F
:1013C0000000000000000000000000000222F00009
:1013D00008000008050297200000601500000000CA
:1013E00000000000000000000000000000000000FD
:1013F000000000000000479ED0040000099B037815
:101400005800000401ECA942000020000000000088
:1014100000000000000000000000000000000000CC
:1014200041698048000091C5634902000063400A99
:101430009480000000000000000000000000000098
:10144000000000000000000002062F908000000055
:1014500008163D4000000663C8A1400000000000DF
:10146000000000000000000000000000000000007C
:1014700000000422CB000002180103C2800000001B
:1014800003DF9AD404000000000000000000000008
:101490000000EF041000000000000001C204D1A40D
:1014A00008000B809A080080000022CE380000005F
:1014B000000000000000000000003C10F0400000B0
:1014C000000000000000416900404000900F400013
:1014D00000000047E5D240000000000000000000CE
:1014E00000C00000000000000000000000400007F5
:1014F0001CFA5509000018F3028004003669FFC683
:10150000400000000000000000000000000000009B
:10151000000000000000080000246D0149200000C8
:101520000B0000008000401EDC3400800000000042
:101530000000000000024000CF0400000000000096
:101540000000E0400A5000000800775958000000F1
:1015500065DB854008000000000000000000003648
:101560000000F000000000000000000222405A00CD
:101570000000909B2694000000025DEE54000004E1
:1015800000000000000000200000000A54000000DD
:10159000000000000200000C3023800D1D16140016
:1015A0000E0200001A0A000002C000000000000045
:1015B00002000000405A000000000000000024006B
:1015C00000C300200039FD016802800000250050A2
:1015D00000A100000000000000000000000000006A
:1015E00000000000000000000001E30020000000F7
:1015F000F6028010002063CAA54203F0000000003C
:1016000000000000000000000000000000000000DA
:10161000000000003000000000E5C140001002445E
:101620001E065400006900000000000000000000D9
:101630000000000000000000000014072185F08079
:101640000003C83B8710A00006644E056000000040
:10165000000000000000000000000000000000008A
:10166000000000009442C0AF000000010040700183
:10167000000006670FA40016000000000000000034
:1016800000006000000000000000000000000024D6
:10169000E02020100001063C00000000020850007D
:1016A0000A30000000000000000000000000000000
:1016B000000000000000000003500A00008090D0ED
:1016C00003C000000000350A000000040000000014
:1016D000000000000000000000000000000000000A
:1016E00000022FACB028000B9873280000000063A4
:1016F000FAF1420002C000000000000000000000FB
:10170000000000000000000000000022F0C3000004
:10171000007900828000000000340B040000040007
:1017200000000000000000000000000000000000B9
:10173000000010E06041E5010000080EF632D0A084
:1017400000262C00000008028000000000000000BD
:1017500000000000000000000000000100002DC09B
:10176000A000000011E5C20C0500004200000000CE
:101770001400000000000000000000000000000055
:10178000000000000000036021E0A000000000DA7B
:1017900003C004001C01EB834002000000000000B5
:1017A0000000000000000000000000000000000039
:1017B00016014005210000000BC0280480002025F0
:1017C000DE340000001101010100000000000000F3
:1017D00000000000000000000010000000000400F5
:1017E0000000000000000000000000008000000079
:1017F00000000000000000000000000000000000E9
:1018000000000000000000000000000000000000D8
:1018100000000000000000000000000000000000C8
:1018200000000000000000000000000010000000A8
:101830000004000000000000000000000000004064
:101840000000000000000000000000000000000098
:101850000000000000000000000000000000000088
:101860000000000000000000000000000000000078
:101870000000000000000000000000000000002048
:1018800000000100080000008000000000000000CF
:1018900000008000000000000000000000000000C8
:1018A0000000000000000000000000001000000028
:1018B0000004000000000000000000000000001014
:1018C0000000000000000004000000000000100004
:1018D00000000000204000000000000000000000A8
:1018E00000400000000003010000000000000000B4
:1018F000000000000000000000000000001C0000CC
:1019000000000000000000000000000000000000D7
:1019100000000000000000000000040000000000C3
:10192000001000000000000000000000182000006F
:101930000000000040000000000001000000000066
:101940000000000000000000000000000000000097
:101950000000000000008000000000000000000007
:101960000000000000000000000000000000000077
:10197000000000000000000000000000000000D097
:1019800000C0000000000000000000000000008017
:101990000000000000000000000000000000000047
:1019A00000000000000000400000080000000000EF
:1019B0000000000000000000040000000000000023
:1019C0000000000000000000000000000000000017
:1019D0000400000000000000000000000000000003
:1019E00000000000000000000000000000000000F7
:1019F00000000000000000000000400000000000A7
:101A000000000000000000000000000000000000D6
:101A100000000000000000000000000000000000C6
:101A20000040600000001000000000000000000006
:101A30000000008100000000000000000000000025
:101A40000000000000000000000000000080000016
:101A5000000000000000000000000000380000004E
:101A60000000000000000000000000000000000076
:101A7000000000000000800002E5050002000008F0
:101A80000000000000000000000000000000000056
:101A90000000000000000000000000000000000442
:101AA0000000021CA0001000001000000000000058
:101AB0000000000000000000000000000000000026
:101AC0000000000000000000000000002D0A0200DD
:101AD000000000003C1000000000000000000000BA
:101AE00000000000000000000000000000000000F6
:101AF000000000000002185000000000002BC10090
:101B000000000000000000000000000000000000D5
:101B100000000000000000000000000000000200C3
:101B200000000000000000000000000000000000B5
:101B300000000000000000000000000000000000A5
:101B40000000000000000000000000000000000095
:101B50000000000000000000000000020000000083
:101B60000000000000000000000000000000000075
:101B7000000000000000000000143C100000000005
:101B80000000000000000000000000000000000055
:101B90000000000000000000000000000000000045
:101BA000000005FA9502000000000000000000009F
:101BB0000000000000000000000000000000000025
:101BC0000000000000000000000001000000000014
:101BD00000000000000000002000000000000000E5
:101BE00000000000000000000000000000000000F5
:101BF0000000000080000000000000000000000065
:101C000000000000000000000000000000000000D4
:101C10000000000000000002C000000000050000FD
:101C200000000000000000000000000000000000B4
:101C300000000000000000000000000000000000A4
:101C40000000000000000080000000000000000014
:101C50000000000000000000000000000000000084
:101C600000000000000000008000000000000200F2
:101C70000000000000000000000000000000000064
:101C80000000000000000000000000000000000054
:101C9000000E000078000000380000000000000086
:101CA0000000000000000000000000000000000034
:101CB00000000000000000000000000000002F05F0
:101CC000F400000100043C100000000000000000CF
:101CD0000000000000000000000000000000000004
:101CE0000000000000000003EA0A40000080007BC2
:101CF000C100000000000000000000000000000023
:101D000000000000000000000000000000000000D3
:101D100000000000000000000000000000000000C3
:101D200000000000000000000000000000000000B3
:101D300000000000000000000000000000000000A3
:101D40000000000000000000000000000000000093
:101D50000000000000000000000000000000000083
:101D6000000001C0000000000000000000000000B2
:101D70000000000000000000000000000000000063
:101D80000000000000000000000000002000000033
:101D90000000000000000000000000000000000043
:101DA0000000000000000000000000000000000033
:101DB0000000000000000000000000000000000023
:101DC00000000040000000000000000000000000D3
:101DD0000000000000000000000000000000000003
:101DE00000000000000000000000000000000000F3
:101DF00000000002000000000000000000000000E1
:101E000000000000000000000000000000000000D2
:101E100000000000000000000000000000000000C2
:101E200000000000000000000000000000000000B2
:101E300000000000000000000000000000000000A2
:101E40000000000000000000000000000000000092
:101E50000000000000000000000000000000000082
:101E60000000000000000000000000000000000072
:101E70002000000000000000000000000000000042
:101E80000000000000000000000000000000000052
:101E90000000000000000000000000000000000042
:101EA0000000000000000000000000000000000032
:101EB0000000000000000000000000000000000022
:101EC0000000000000000000000000000000000012
:101ED00000000000000000000030000000000000D2
:101EE00000000000000000000000000000000000F2
:101EF000000000000000000000000003800000005F
:101F00000000001D050000000000000000000000AF
:101F100000000000000000000000000000000000C1
:101F2000000000000000000000000000000AA020E7
:101F300000000000000000000000000000000000A1
:101F4000000000000000000000000000000004008D
:101F50000000000000000000000000000000000081
:101F60000000000000000000000000000000000071
:101F70000000000000000000000000000000000061
:101F80000000000000000000000000000000000051
:101F90000000000000000F27EC02000040000000DD
:101FA0000000000000000000000000000000000031
:101FB0000000000000000000000000000300058099
:101FC00006BDC00C00260000000000000000000C50
:101FD0000000000000000000000000000000000001
:101FE00000000000000000005085C0280000000331
:101FF000400000000000000000000042000000005F
:1020000000000000000000000000000000000000D0
:1020100000081B9380001000060400000000000070
:102020000000000026040000000000000000000086
:102030000000000000000000000000500F6461007C
:102040000000043C005400000000000000000000FC
:102050000000000000000000000000000000000080
:10206000000000000D805AB4D000000079E8504014
:1020700080000000000000000000000000000000E0
:10208000000000000000000000000002000000ABA3
:102090003000000000036C0054000000000000004D
:1020A0000000000000000000000000000000000030
:1020B00000000000000000058133C20000000005A0
:1020C000E850C00000000000000000000000000018
:1020D0000000000000000000000000000000000000
:1020E00000000F2645000000003E005400000000E4
:1020F00000000002C000000000000000000000001E
:102100000000000000000000200001800698900000
:102110000000014850C10000000000000020000045
:1021200000000000000000000000000000000000AF
:10213000000000000005C029000000420200F40079
:102140000000000000400000060054800000000075
:1021500000000000000000000000000000000A93E2
:1021600095500000366548F0C000000000000400F3
:102170000003C85040800000000000000000000084
:1021800000000000000000100380FC400000000080
:1021900000F40000000000000002C0140054000021
:1021A00000000000000000000000000000000380AC
:1021B0000800F606808E000001C8F0C00000000094
:1021C000000E002003C850C04000000000000000C6
:1021D00000000000000000000000000FF8100000E8
:1021E000000001A0F40000000000000000038400D3
:1021F00054C00000000000000000000000000000CB
:10220000000000001813C600000000015CF0C000D0
:102210000000000000000003C850C00000000000E3
:102220000000000000000000002000000010D78324
:102230000500000240000000000000000000200037
:1022400040360054008000000000000A40004000BA
:102250000000094003000B99FE30D48C00A0000060
:10226000000000000000000C002061E850C00000E9
:1022700000000000004A0006800000008000080006
:102280000000414000208004000F0C80000000008E
:102290000020004226005410000000000000000052
:1022A00004000000000000000000183F940000003F
:1022B00000381CF04000000000000000263D68507F
:1022C000C0000000000000000000600000000000EE
:1022D0000000000001E08100000020000F04000069
:1022E0000000000000000034005400000000000066
:1022F00000000000000000000400000001805640C3
:10230000100000060018F04000000000000000006F
:10231000016850C100000000000000000000000043
:1023200000002242080000C043C100200000060A4D
:10233000F400000000000020080024005400000009
:1023400000000000000000000000000146800000C6
:102350000107BC10000006025CA540000000000060
:1023600000004001E850C100000000000000000033
:1023700000000000000080000000D04015000000B8
:10238000000D00A400000000000000000236005410
:102390001010004000000000000000205540000028
:1023A000100000017B015000000000080540000003
:1023B000000000004006054850C1028000000000F7
:1023C00000000000148554000B0000000100000014
:1023D0000000000024F084100000000000E0000273
:1023E000A600550080000000000002001420200F0D
:1023F0004008400000001A00000000000000DE0657
:102400004000000000000C000061C850C000000047
:1024100000000000000006548F0C0000000000586F
:102420009DF8F0200000401FC20400028000000060
:10243000000000340055000000000000000800000B
:1024400000000F4000078780058193CF800E002099
:1024500003C8404000000000000E000001C850D03A
:1024600000000000000000E000101C8F0C00004085
:10247000002008D00000000020022400A100040079
:10248000000000000002A400552000000000000031
:10249000000000000F550008068000070100000042
:1024A00000000064DE0F00000000000000000001DA
:1024B000C850D00030000000000000000014F558A3
:1024C000000000000000A000000000400414806034
:1024D0009000000000002A15E3FCD30482800580F0
:1024E0003360D00A000002DA5841000003000009FE
:1024F0000000000000003859054000000000000CFA
:1025000040BE025B20401000B803AF8D0040016068
:102510003F9A740000000800000000000020000046
:1025200000003200001000000020000024E0000045
:1025300080000878280002020C20005001000000F2
:10254000000000000000000400780C0302000200FC
:10255000000000000C395808000000501BF3D400A4
:1025600000000044E5000000000000100300C3006C
:102570000000001704400000000000000003E036E7
:102580000FF080000D0033769000000000200A005C
:102590000000000005009E8D1080000003EE000288
:1025A000000000000000AC3C63DEFE030000998DDB
:1025B0007291000001C604C0A004000208000009D6
:1025C000C14080280000040AF00000000000002044
:1025D000000394B00000800700533C100200040088
:1025E000D00A010000000000005A000000001E0296
:1025F0006A7E020000000000000006656D10000009
:1026000000D9A36B450000020000A050000080012B
:1026100000B0A00000000002C2A5B400000000004D
:1026200000000003460EDA150000010058154000B6
:102630000024002005200000202009800000000068
:10264000000001490000000000000000001C2EDC1A
:102650004240000080097A940000020004C0500447
:10266000000001000000000000000040060500001E
:1026700000000000002003600003C0108000093447
:102680001C100200002D50B04000000000000000AF
:1026900000000000B4036AE26200000000000000D5
:1026A0001460003C0200001807BBC5090001600E61
:1026B000EF1424000000005000000000000140253D
:1026C0008A00000000000000000020010500020058
:1026D0000000D014004800003020A000000003805B
:1026E00000000000000E001401492000000000005E
:1026F000000F0014004A5000380000003A8040E00B
:10270000000004CA00040000000001A37D01400095
:102710000142A7A000000000000000000042E4A465
:10272000040000000B0000000000022CC00F40005D
:10273000000000000EDFC01000000029682000002B
:1027400000000000000020015E00400000001000BA
:10275000000000014000EF040022400000000503DB
:10276000EB000000020200500000000000008000AA
:102770000000000002000F0A92369008000022E8D4
:102780009A4009560300000003BD500C0000047A73
:10279000050001000000000400000000000010021D
:1027A000508BB291004000006EFA540008240000E3
:1027B00000C043C300000002000F0400000000003E
:1027C000000800000000000000100E733C100040E4
:1027D0002E3C7DF04000004000078002BC1020002D
:1027E00006041CF041000000000000020000000090
:1027F00000000000197B458000034037FD14000BEA
:1028000040008090A003C3000000002405A40840FD
:102810000040000004000000000000001508F32044
:10282000D0000094236C834008E600000180073C40
:10283000100000060000A540040000000000A000F9
:1028400000000000000018BB778D000016662FBE48
:1028500034002300000000E083D7000000001C05C6
:10286000A4000000000000000002000F04000001AE
:10287000007B3C100000147AD900000150000003D6
:102880008072BD500000000000A541000000000063
:10289000000006040AF0404000000FEB4500000174
:1028A000E2CCF082000040000200D3AD7984000049
:1028B00020000F04800000000000000000000F0650
:1028C0000000010B9414000040262DD0500000069B
:1028D00000005001B74B9000001E001AF0400000AD
:1028E0000000000000000018F0400000800973D4D0
:1028F000000A03460FAF50000F240000D8A003C306
:1029000000400000010F048000000000004001C0F2
:10291000010F0600000000FC190800000000E06440
:102920000008C040000101073C10040000001EF038
:102930004000000000000400000008F0400000011A
:102940008DBAF0080000060DABC22000400002085E
:1029500003604104000003FC05A4800000000000A7
:10296000800340010F0402100000BC2B80080036D9
:102970007E50AF000006038053005700100E000089
:102980000400A54000000000000E0020000CF040F4
:102990003A00018D796008E00142ECA180208000BE
:1029A0000000080003D704000003DF00000004005B
:1029B000000000000403000F0400000F8010280036
:1029C00000010000E0A0000800000001001ABD5056
:1029D00000008061C80A00000000000000000060E4
:1029E0000CF06000805003EBD4000008003FCF5093
:1029F000000000000000000000000000034FD1D5DF
:102A000000000000000000002034A0400000000989
:102A1000003C3210000002404A400000000000006C
:102A20000000000C000007782541000000000000B5
:102A3000001C021908003000000063C100C0000043
:102A40002EA9142000000000000000000000000279
:102A50000205040000800000000000039400F00064
:102A6000000980003C1000807C0270000000000023
:102A700000000000000000400004DC506000000086
:102A8000000000001E036C5E020010F9A02BC100C4
:102A90000002000E80A00000000000000000000006
:102AA00000000335CF1400000000000000014226A2
:102AB00000000000000E00000000000421E0A8401B
:102AC000000000000000000000000006024BF05073
:102AD000000000000000002664405A00000001F0E1
:102AE000000000000207CFAB04200002000000003D
:102AF000000000000047430F5400000040000000A9
:102B000000000603C00000009000028000000420C6
:102B100010F300000000000000000000004026212B
:102B2000D8F541000000000000000600FC1C020077
:102B30001019E338280000020741CF3020000000C0
:102B4000000000000000000002C00F0400000000B0
:102B500000000001428D005100000008F40F120037
:102B600000040068000000002000000A00000000CF
:102B70000000640CF040000000000000001428FC7D
:102B800080020000019D3AF1080002600CD80100AB
:102B90000000000000000000000A0000030F4600D3
:102BA000000000000000014027B010000005007C7C
:102BB00030C00000002ADD4240000000000000009C
:102BC000000000408061D8F44200000000000008CE
:102BD00000287A000000303003710C0800414036B4
:102BE000C93400000000000000000000000007835E
:102BF0000A021000000000000003C03C00A000001A
:102C000007009EC200000014006A08400000000097
:102C100000000000000E00002CDCA00000000000FE
:102C2000000E000029EE004038008003EC6000E058
:102C300001460F9B540000000000000D01680000D9
:102C4000024226050400001000000000004294B07B
:102C5000000020000000000000000032EC464001AF
:102C6000000000000080294000000005EC0040004A
:102C7000020000000008342A4B0800000001800018
:102C8000000004006635A8340023000000000003A3
:102C90000C000000000000000043000000000000E5
:102CA0004026005400000010043D42000080000057
:102CB00000000977800000000030C08000000000A4
:102CC000000004000000000C0020016850403000AB
:102CD00000E3EBD400C0140000000000000000007E
:102CE0000000030C00000003800000000000000052
:102CF000000000003600540000000000000000004A
:102D000000000000000000000000000030C0800053
:102D10000000000000000000000000000661685094
:102D2000C000000000000000004000000000000F94
:102D30000000000000030C000001C3BDD210000021
:102D4000000000000020002400540000018000303A
:102D5000C000000000CB4A4008A680000000003000
:102D6000C080000000FC0220000000000000000005
:102D7000016850C000007C00030C08000060269928
:102D80001400202040000000030C0000000400009C
:102D9000F2000000000000000000340054000000B9
:102DA00090003C000000000000F0000140400000E6
:102DB000000030C0800000200A0F08000000000062
:102DC00000060001E850C0000078A073C0000000B9
:102DD00000048F0800000000005000030C000000F9
:102DE0000000000000000000000000034226005424
:102DF000000000100000000100006C20F00100073E
:102E0000800008000030C0800000000000000000CA
:102E100000000000000665C850C0000001E000008E
:102E200000000002848F0800100000000000030C66
:102E3000000001400000000000000000000000460B
:102E40000200F4000000000000000000340000F068
:102E5000000200000000000030C08002800000007E
:102E60000000000000000100202D48F0C00000001C
:102E700000000000000000148F0800800000050022
:102E800000030C0000000000000000000000000033
:102E90000003400000F4000000000C014400003674
:102EA0000020F0000000080020000030C08000007A
:102EB0000000000000000000000E000001C8F0C08B
:102EC00038000001781400E00140168F080000026D
:102ED0000000000003C0000000000000000004002B
:102EE0000000000000040080F40000000904281025
:102EF0000000022C00000200000000000006BC00E0
:102F00000000000000000000000000000000002998
:102F10005BF0C00000000332810000A14006000801
:102F2000000000110201010000000000000000206C
:102F30000000000000000000000000100000000081
:102F40000000000000000000000000000000000081
:102F50000000000000000000000000000000000071
:102F60000000000000000000000000000000000061
:102F70000000000000000000000000000000000051
:102F80000000200000000000008000000800200079
:102F90000000000000000000000000000000000031
:102FA0000000000000000000000000000000000021
:102FB0000000000000001000000000000000000001
:102FC0000000000000000000000000000000000001
:102FD000000000000010000000000000000C0000D5
:102FE00000100000000000000000000000000000D1
:102FF0000000000000000000000000202000000091
:103000000000000000000080000000000000000040
:1030100000000000000000000000000000000000B0
:103020000000000000000000000000002000004040
:1030300000000000000000002000000000000080F0
:103040000000000000000000000000000000000080
:10305000000000000000000004000000000000006C
:103060000000000000000000000000000000000060
:103070000000000000000000041E0000000000002E
:10308000000000000C000000000000200000000014
:1030900000008000000000000306000000000000A7
:1030A0000000000000000000000000000000000020
:1030B0000000000000000000000000000000000010
:1030C00000000040000000000000030000000000BD
:1030D00000000000000000000000000000000000F0
:1030E00000000000000000000000080000000000D8
:1030F00000000000100000020000000000000000BE
:1031000000000000000000000000000000000000BF
:1031100000000000C00000000000000000000000EF
:10312000000000000000000000000000000000009F
:10313000000000000000000000000000000000008F
:10314000000000000000000000000200000000007D
:10315000000000000000020000000000000000006D
:10316000000000000000000000000000000000005F
:1031700000080F0000000000200000000008000010
:10318000000000000000000000000000000000003F
:10319000000000000000000000000000100100001E
:1031A000000000000000000000000000000000001F
:1031B000000000000000000000000000000000000F
:1031C00000000000000000000000000000000000FF
:1031D0000000000000000000000000000F380000A8
:1031E0000000029401000000000000000000000048
:1031F00000000000000000000000000008000000C7
:10320000000000000000F000000000001680B00088
:1032100000000000000000000000070000000000A7
:10322000000000000000000000000580000040C019
:1032300058000000000000000010014000000000E5
:103240000000280010000000000000000000000046
:1032500000000000080000000C000000000000005A
:103260000000080014000000000000000000000042
:10327000000000000000000000000000000000004E
:103280000000000000040000000000180000000022
:10329000000000000000000000000000000000002E
:1032A000000000000000000000000000000002809C
:1032B000000000000000000000020000000000000C
:1032C0000000000000000C000000000000000000F2
:1032D0000001008000A05800280000083C60180091
:1032E000000040000000000000000000000000009E
:1032F0000000000000000000000000900400050035
:10330000380400000003C0000F00000000000000AF
:1033100000000000000000000000000000000000AD
:103320000001578000000000000000000000083D80
:10333000600000000000200000000000000000000D
:103340000000000000000000000000141000000059
:10335000000000000000000003C0000000000000AA
:10336000012F0180000000000000000000000000AC
:103370000000000000000000000000A50000600048
:103380000000000000000000000002F0000000004B
:10339000000000000000000000000000000000002D
:1033A0000000000005A02800000000000000000050
:1033B000000000000000000000000000000000000D
:1033C00000000000000000000000000000000000FD
:1033D0000004000000000001A00000000000000048
:1033E00000000000000000000000000000000000DD
:1033F00000000000000000000000020000000000CB
:1034000000000000000000000000000002000000BA
:1034100000000000000000000000000000000000AC
:103420000000000000000003C14000000000000098
:10343000000000000000100000000000000000007C
:10344000000000000000000000000000000000007C
:10345000003C02000000000000000000000000002E
:10346000000000000000000000000000000000005C
:103470000000000000000002000000000081C00009
:10348000000000000000000000000000000000003C
:10349000000000000000000000000000000000002C
:1034A000000000000000011000000000000000000B
:1034B000000000000000000000000000000000000C
:1034C00000000000000000000000000000000000FC
:1034D000818001C00000000000000000000000002A
:1034E00000000000000000000000000000000000DC
:1034F0000000000000000000000F000004000000B9
:1035000000000000000000000000000000000000BB
:103510000000000000000000000000001400000097
:10352000190DE87810000000000000000000000005
:10353000000000000000000000000000000000008B
:103540000000000000000000000038E6D18D0000FF
:103550000002000000000000000000000000000069
:103560000000002800000000000000000000000033
:1035700000000018286D100000000000000000008E
:10358000000000000000000000000000000000003B
:103590000000000000000000000000000017C380D1
:1035A000000000000000000000000000000000001B
:1035B000000000000000000000000000000000000B
:1035C000A500000000000BC1CA800200000020001E
:1035D00000000000000000000000000000000000EB
:1035E00000000000000000000005A02C00050020E5
:1035F0000002D700400000000000000000000000B2
:1036000000000000000000000000000000000000BA
:10361000000040C30000010000094140108000008C
:10362000000000000000000000000000000000009A
:103630000000000000000000000000000C3000004E
:103640000800002802F990000000000000000000BF
:10365000000000000000000000000000001000005A
:103660000000000000000000000000000043CB103C
:1036700080040000000000000000000000000000C6
:103680000000000000000200000000000000000038
:10369000000000000004002DB798000000000000AA
:1036A000000000000000000000000000000000001A
:1036B000000000000000000000000000000000000A
:1036C00007CF000400000000000000000000000020
:1036D00000000000000000000100000000000000E9
:1036E000000000000000000000002DC700A0000046
:1036F00000000000000000000000000000000000CA
:103700000000000000001DC80C0080030A13C00068
:1037100000000005CC108000000000000000000048
:10372000000000000000000000000000080002800F
:1037300029710000042A002C00000000003CD990F0
:103740004000000000000000000000000000000039
:103750000000000000000010A90EE000001C030A99
:1037600013CE000070004168000081C0000000001E
:103770000000000000000000000000000000000049
:1037800002296C1C00F040402A0024201001000097
:103790000790000000000000000000000000000092
:1037A0000000000000000000000000116CA1801863
:1037B00000030A12E60200000007FD0001080000F5
:1037C00000000000000000000000000000000000F9
:1037D0000000000201474B00F000002A006C40008E
:1037E0000000001FC00000000002000000000000F8
:1037F0000000000000000020000000000002B806E9
:10380000A1800140030A12EE6000000004CE100205
:1038100000000000000000000000000000000000A8
:10382000000000000042020B005F00E008002A00D8
:103830006460000000002CF0005000000000000058
:103840000000000000000000000000000000000474
:1038500000168087980000030A17C00000000007C8
:10386000FDD1A000000020000000000000000000CA
:103870000000000000000000000000000B700000CD
:10388000002A002C00050000003CD50A00000000C2
:103890000000000000000000000000000000000028
:1038A00000000011100DF71E0000030A16C00002F0
:1038B00000000000D1A3C0000000000000000000D4
:1038C0000000000000000000000000000000003ABE
:1038D00001F000002A0024000010000000050A008A
:1038E00000000000000000000000203FC0000000B9
:1038F000000000000000000437C7001000030A1693
:10390000C0640000083C0058B00000000000000047
:103910000000000203FC00000000000000000000A6
:1039200000035B980000002A006C02000002C3C084
:10393000050A200000000000000000000000000058
:1039400000000000000000004000B807A5800088CB
:10395000030A17C604002000000058B000C0000091
:103960000000000000000000000000000000000057
:103970000010081B02DF080010402A00640200014A
:10398000000000050A0C0000600000000000280094
:1039900000000000000000000000000002207695FA
:1039A000180000030A13A0020000016F5F0000006E
:1039B0000000000000000001000000000000000006
:1039C00000000000000001026D389000022A00256E
:1039D000C01000222957CF00000000800000000026
:1039E0000000000000000000000000000000004097
:1039F0000424801C2080030A13C0380070000000DB
:103A000079800400000000000000000000000000B9
:103A100000000000000000400002806B51F0140024
:103A20002A002004030100000000800000000000C4
:103A3000000000002800000000000000000000005E
:103A4000000010285693000400030A12A60100008B
:103A50000000DC7801C00002C0000000000100404E
:103A600000000000000000000000000020003D9069
:103A70000001002A0064402004000C36F78000009A
:103A80000000000000000000000000000000000036
:103A90000000000000003FD6DB090080030A12E0AE
:103AA000607001035DFD00D0000008000000000010
:103AB0000000000000000000000000000000000303
:103AC0007CFA11F010002A00604007000036C28026
:103AD00018100004000000000000000000000000BA
:103AE000000000000000000010001FFF9E00000307
:103AF0000A17800100010000ECF9C00002C020009C
:103B000000000000000000000000000000000000B5
:103B10000000001028F90000002A0024080000001E
:103B20001002C79E0010810000000000000000008D
:103B30000000000000000000000000113C0EE00149
:103B40000000030A16C001000003E8DA79D0000083
:103B5000A0000000000000000000000000000000C5
:103B6000000000000001C01B90E000002A002000BF
:103B70002C00003E82009F000000000000000000BA
:103B80000000000000000000000000000000200114
:103B90005EC3800140030A168065500100BDD878DD
:103BA0001000000000000000000000000000000005
:103BB0000000000000000002101430080000002A7D
:103BC00000640200400003C1C0090010940000001E
:103BD00000000000000000000000000000000000E5
:103BE00000120015A8000000030A17C604002103F4
:103BF0009DE970A0000A8000000000000000400065
:103C0000000000000000000000000000082BF0F0A1
:103C100001002A0060020005003EC1AF90001000C4
:103C20000000000000000002000000000000000092
:103C300000000000000806D1800140130A13800034
:103C40000000296800819000810000000000000051
:103C5000000000000000000000000000080000C09C
:103C60006900E009022A003400000006E940E70884
:103C7000000000800020F580000007000000000028
:103C8000000000000000001023D6C3000000130A4B
:103C9000138000707003FDC9500001C00000030FC5
:103CA000080000000000000000000000000000000C
:103CB00000223C3050A000002A003C000001023EDF
:103CC00080D0080004000000000000000000000098
:103CD00000000000000000000000000204F7800067
:103CE00000130A12A600010103F1ED00B00000006C
:103CF00000000000000000000000000000000000C4
:103D0000000000006003FE000001002A0074400073
:103D100004813F4180180010000200000000C00034
:103D20000000000000000000000000000001043757
:103D3000F98A0000130A12A06002000020CF00F0F0
:103D400000800800000000020000000000000000E9
:103D50004000000000000060035EB10504002A007E
:103D60007C400450000014D00E0000000000000051
:103D70000000000000000000000000000000000043
:103D800000141FC8080000030A1780000001033C4C
:103D9000E9599000000020000000000000400000F1
:103DA0000000000000000000000000000B110000F7
:103DB000012A0035C000000032C0A09F0C000000A6
:103DC00000000000000000000000000000000000F3
:103DD000000000110017938A0000030A16800050AB
:103DE0000102BC4B788E00000000000000000000C3
:103DF0000000000000000000000000000002000DB4
:103E0000099000012A003C000000003BC2A000E035
:103E100000000000000000000000000000000000A2
:103E20000000000000000000000B800000030A16E4
:103E300080640001099C6D00E800000000000000A3
:103E40000000004000000000000000000000000032
:103E5000000000B08200082A0075C2000080A9C2DC
:103E6000F01040000000000000000000030000000F
:103E700000000000000000000000004F910A000157
:103E8000030A178604002000000050000080000094
:103E90000000000000000000000000000100000021
:103EA0000000000001DC01B001002A007C020005D6
:103EB00000000000890014800000000000000000E5
:103EC000030204010000800000002000022057F0DF
:103ED000000000030A13C678010000074D0000022D
:103EE00000000000000000000000000020080000AA
:103EF00000000001000001035D000002032A003001
:103F0000440020000136CD00002000000000000029
:103F100000000000000000000100000000000000A0
:103F20001687D81B091C130A13E0048071000DEEDC
:103F3000001001C0000000000000000000000000B0
:103F400000000800000000000000280E70A80040DB
:103F50002A00344200010001C0F00800048700007C
:103F60000000000000000000000000000000000051
:103F700000000000000180A000130A12E0280000E9
:103F80000046EC98010000E0000000000000000086
:103F90000000000000000000000000000000000021
:103FA000D400002A0070440050001107B100000046
:103FB00046020000000000000000000000000000B9
:103FC000000000200000040790000800020A17000B
:103FD0000070000A3B5D50008000000000000000FF
:103FE00000000000000000000000000001000000D0
:103FF00000DC00E000082500240000002483FED03F
:10400000800000040000000000000000000000002C
:10401000000000000000000000168FF00F00028278
:10402000A5F3046800000B1AC0F0E41402C00000FD
:104030000000000000000000000000000000000080
:10404000700000140C00E0C0012801A7600000000F
:10405000B2469910A080007000000000000000002F
:10406000000000000000000000000010A05DF0193A
:1040700000020607D78E64000002A958180000004D
:10408000040000000000000000000000000000002C
:1040900000000000006B043C10F0000020337C03A3
:1040A0000100042A82000B00000004000000000050
:1040B00010000000000000000000000000000014DC
:1040C0000F9708000082C6B2006400030081C05050
:1040D00080140002800000000000000000000000CA
:1040E0000000000000000000000008000000102C8C
:1040F00039B5C20000050400D99B008014000000FF
:1041000000000000000000000000000000000000AF
:104110000010000CE1010808000000040070230AF0
:10412000B4EF81E000828000000000000000000089
:10413000000000000000000000000200080A30E05B
:104140000040000000000001049481D3000004003E
:10415000000000000000000000EBC4E000000000D0
:1041600000000000000076B80B00000000002028CE
:1041700000040001FD001004000000000000000029
:1041800000012A800D00000000000000080000036C
:10419000E971E00000000000C40000001402C00A41
:1041A000008000000000000000000000EBC4E00000
:1041B000001C0000000000113FD5A000001C00F012
:1041C000560060000000137D001001C000000000D8
:1041D00000000000002A800F0000004000000000E6
:1041E00000016C28308000400A0070C400002000EC
:1041F0000EF00A000400000000000000000040EB88
:10420000C4A98000000000000000100F000180A081
:10421000000010DE402000000202E18000000000EB
:1042200000000000000000002A801D1000000000B7
:104230000000000040F00000F40000000B2400002B
:104240000000100CBB000000000200000000000095
:104250000001EBC4A01800000000000000000144B1
:10426000999D00084440100060000000037D98A064
:1042700000000000000000000000002A801F000075
:104280000000000000000000002A71E0004008006B
:10429000BC06800020010EF90000000000000000B4
:1042A0000000000001EBC5E8000000000000000075
:1042B000000434150000000000000020000002236C
:1042C0005B000000000020000000000000000A80E9
:1042D0000DF000000000000000080083C908000085
:1042E000000000000000000008B780000C00000083
:1042F0000000000000000004EBC5A01D000000004D
:104300000000000083DFA180000000105E4000007C
:104310000101016801814000000000000000000070
:10432000000A800F01C0000000000000080D1D48B9
:1043300000000000400F68400050201000000C00FA
:1043400040000000000000000000004001C819000B
:1043500000000000000000046DF00000008010DA92
:10436000400000010011E10000000000000000001A
:1043700000000000000000F08000000000000000CD
:1043800002236E0001C020000929C00000000202C3
:10439000C00000000000000000000000000040011C
:1043A000E01D000C000000200020B8F78118000874
:1043B00000000000000004083D7D80000080000037
:1043C00000000000000000000000018000800000EC
:1043D0000100000E0ED800B00080000000000000B8
:1043E00000AA82C3000004000000000000000000DA
:1043F00001AA84A0000000000000000004BD54A039
:104400000000000033B71460620003E3EB00B0006B
:10441000000020000000000000008AA8000000004A
:10442000000000000000097C2E0000000000077F53
:104430006200400015359D1A0000000000000000D9
:104440000000000000000020201C00000000000010
:1044500093DC0000001E50031E6000007100D46851
:10446000019001C0000000000000200000000000DA
:104470000000004000000000000A3D4B0000004921
:104480000000B242C001000E42A70A000420000052
:104490000000000000000000000001000C0000000F
:1044A000000000000000010082420D76C6380000C6
:1044B00003E1FF808800030000000000000000000E
:1044C000000000008000C00000000000000000307C
:1044D0008014002150EC040000001525950B00000D
:1044E0000002000085806000020000000000000063
:1044F0000000000000000000001E000002AD12CE0F
:1045000000000100D47AD9A01000000000000800CB
:10451000000000000000000000000000000000009B
:104520000000000000002201ED600000000E428B40
:1045300000008000000404000000000000000000F3
:104540000000000000000000000000000000000269
:10455000C996BE280041028D6C0180000000201029
:10456000000000000000000000000000000000004B
:104570000000000000000000002813F8E000000028
:1045800028C2000000000404000081800000000038
:1045900000000000002000000000000000000000FB
:1045A000000000107A142C000108814F0000000068
:1045B000C2800000000000000000000000000000B9
:1045C0000000000000000000000000010007B4220D
:1045D0000000409C00800000000000040400000077
:1045E00000000000000700000000000000000000C4
:1045F0000000188000004033B46004000A3FEF015F
:104600009000080300000000000000000000000807
:10461000000000000000400000000000040008004E
:1046200005B442002000837E801F00005400040473
:104630000000000000000000001E000C0000000050
:1046400000000000000000080000000E2100200013
:104650000000B01000820000000000000000000018
:104660000000000000C0000000200000000000006A
:1046700000C0000000000C0100000001090004005F
:104680000011030101000000000000000000000014
:10469000000000000000000000000000000000001A
:1046A00040000000000001000000000000000000C9
:1046B00000000000000000000000000000000000FA
:1046C00000000000000000000000000000000000EA
:1046D00000000000003800000000000000000000A2
:1046E00000000000000000000000000000000000CA
:1046F00000000080000000009002000002000000A6
:1047000000000000000000000000000000000000A9
:104710000000000000000000000000000000000099
:104720000001000000000000000000000000000088
:104730000000000000000000000000000000000079
:10474000000000000000400000C000000100000068
:104750000000000000000000000000000000000059
:104760000000000000000000000000020000000047
:104770000000080000000000000000000000000031
:104780000000000800000000000020000000000001
:104790000000000000000000000000000000000019
:1047A0000000000000000000000000000000000009
:1047B00000000000000000000000000000000000F9
:1047C00000000000000000000000000000000000E9
:1047D00000000000000008000000000000200000B1
:1047E00000000C000000000000300000000000008D
:1047F000C0A0000000000300000000000000000056
:1048000000000000000000000000000000000000A8
:104810000000000000000000000010000000000088
:104820000000000000000000000000000000000088
:104830000000000000000000000000000000000078
:1048400000003000000000000C000000000000002C
:104850000000000000000000000000000000000058
:104860000000000000000000000000010000002027
:104870000000C00000000000000000000000000078
:104880000000000000000000000000000000000028
:104890000000000000000000000000000000000018
:1048A0000000000000000000000000000000000008
:1048B00000000000020000000000000800000000EE
:1048C0000000200000000000008000000000000048
:1048D00000000000000000000000000800000000D0
:1048E0000000000000000000008000020000000046
:1048F00000000000000000000000000000000000B8
:1049000000000000000000000000000006000000A1
:104910000000000000100000000000000000000087
:104920000000000000000000000000000000000087
:10493000000000000000000000000000002C00004B
:104940000000000000000000000000000000000067
:104950000000000000000000000000000000000057
:1049600000008000000000000000000000000000C7
:104970000000000000000000000000000000000037
:104980000000000000000000000A0000000000001D
:104990000000000000000000000000000000000017
:1049A0000000000000000000000000000000000007
:1049B00000000000000000000040000000000000B7
:1049C00000000000000000000000000000000000E7
:1049D00000000000000000000483C0000000000090
:1049E00000000000000000000000000000000000C7
:1049F00000000000000000000000000000000000B7
:104A00000000083C60000000000000000000000002
:104A10000000000001000002000000000000000093
:104A2000000000000000000000000000BC000000CA
:104A30000000000A03C000000000000000000000A9
:104A40000000000000000000000000000000000066
:104A500000000000000BC160000000000057800053
:104A60000000000000000000000000000000000046
:104A70000000000000000000000000000000000036
:104A800000000B000000000000000000000000001B
:104A900000000000200000000000000000000000F6
:104AA0000000000000000000000000000000000006
:104AB00000000000000000000000000000000000F6
:104AC00000000000000000000000000000000000E6
:104AD000000083C00008000000000000000000008B
:104AE00000000000000000000000000000000000C6
:104AF0000000000000000000000000483D400010E1
:104B000000000000000000000000000000000000A5
:104B10000000000000000000000000000000000095
:104B2000000000000000000008000400500B80009E
:104B3000000000000000080000000000000000006D
:104B40000000000000000000000000000000000065
:104B500000001001C00A070400000000000000006F
:104B60000000000000000000000000000000000045
:104B70000000000000000000BC0000000000000079
:104B80000000000000000000000000000000000025
:104B90000000000000000000000000000000000015
:104BA000000BC1C000000000000000000000000079
:104BB00000000000000000000000000000000000F5
:104BC000000000000000000000000083C2000000A0
:104BD000000000000000000003C0200000000000F2
:104BE00000000000000000000000000000000000C5
:104BF00000000000083CE000000080000000000011
:104C000000203C1600000000000000000000000032
:104C1000000000000000000000000000000083C24F
:104C20000000000000000000000000000000000084
:104C30000000000000000000000000000000000074
:104C400000000000000000083C40000000000000E0
:104C50000000000000000000000000000000000054
:104C60000000000000000000000000000000000044
:104C70000000000100000000000000000000000033
:104C80000000000000000000000000000000000024
:104C90000000000000000000000000000080000094
:104CA0000000000000000000000000000000000202
:104CB00000000000000000000000000000000000F4
:104CC0000000000483C0000000000000000000009D
:104CD00000000000000000000000000000000000D4
:104CE00000000000000000000000000000083C6020
:104CF00000000000000000000000000000000000B4
:104D000000000000000000000000000000000000A3
:104D10000000000000000083C00000000000000050
:104D2000000000000000000800000000200000005B
:104D30000000000000000000000000000000000073
:104D4000083C6000000000000000000000000000BF
:104D500001800000000000000000000000000000D2
:104D60000000000000000000000000000000000043
:104D70000000000000000000000000000000000033
:104D80000000000000000000000000000000000023
:104D90000000000000000000000000000000000013
:104DA0000000000000000000000000000000000003
:104DB00000000000000020000000000000000000D3
:104DC0001E000400000000000000000000000000C1
:104DD00000000000000000000000000000000000D3
:104DE00000000000000000000000A001C000000062
:104DF00000000000000000000000000000000000B3
:104E00000000000000000000000000000000800022
:104E10000000000000000000000000000000000092
:104E20000000000000000000000000000000000082
:104E3000000000000000000000000000180000005A
:104E40000000000000000000000000000000000062
:104E50000000000000000000000000000000000052
:104E600000000000000000000080AA0400200000F4
:104E70000000000000000000000000000000000032
:104E80000000000000000000000000000000000022
:104E90000000002AA168004000000000000000009F
:104EA0000000000000000000000000000000000002
:104EB00000000000000000000000000000F00400FE
:104EC00020000000000000000000000000000000C2
:104ED00000000000000000000000000000000000D2
:104EE00000000000000030F16806400000000000F3
:104EF00000000000000000000000000000000000B2
:104F000000000000000000000000000000000000A1
:104F1000F0000000000000000000000000000000A1
:104F20000000000000000000000000000000000081
:104F300000000000000000000030F16800000000E8
:104F4000000000000000000200000000000000005F
:104F50000000000000000000000000000000000051
:104F6000000000F000000000000000000000000051
:104F70000000000000000000000000000000000031
:104F800000000000000000000000000030F1780088
:104F90000000000000000000000000000000000011
:104FA0000000000000000000000000000000000001
:104FB000000000000000F0040400000000000000F9
:104FC00000000000200000000000000000000000C1
:104FD00000000000000000000000000000000030A1
:104FE000F12A660000000000000000000000000040
:104FF00000000000000000000000000000000000B1
:10500000000028030000000000F00404000000007D
:105010000000000000000000000000000000000090
:1050200000000000000000000000000280580000A6
:10503000000030F12A6000020000000000000000C3
:105040000000000000000000000000000000000060
:10505000000000000000000080000000F0000000E0
:105060000010000000000000000000000000000030
:105070000000000000000000000000000000000030
:10508000005000000030F138000007000000000070
:105090000000000000000000000000000000000010
:1050A000000000000000000000000000000040F0D0
:1050B00000000000000000000000000000000000F0
:1050C00000000000000000000000000000000000E0
:1050D000000000005000000030F138000000000027
:1050E000000000000000000000000000000000C3FD
:1050F000C2000000000000000000009680C0000018
:10510000500247BAC00000500ABC3FF00001400006
:105110000000000000000000483CC0000080C0000B
:10512000000000000A94007180098824A7A0600094
:10513000020083D7E18000080600000000000000A4
:105140000000000000000010000000000000AB1E86
:10515000870D0000005008040000000BDFFD100068
:10516000000000000000000000000000000000003F
:10517000000000000000020973C180100008050152
:10518000EA46000020BFFE90000000000000000082
:10519000000000000000000000000000000000000F
:1051A0000083C1E08800800000000078000000005B
:1051B00000100000000000000000000000000000DF
:1051C000000000000000000000000A95FE50000CE6
:1051D0008000000006400000000000000000000207
:1051E000000000000000000000000100015000006D
:1051F0000000000083C180000000028BF602000066
:10520000000000000000000000000000000000009E
:10521000000000000000000000000000000A94D917
:1052200000E000002855E0E0000000000000000061
:10523000000000000000000000000000000000006E
:10524000000000000000023E80F0000000000000AE
:10525000002000000000000000000000200000000E
:10526000000000000000000000000000000000003E
:1052700001407E000000000000000040000000002F
:105280000500000000000000000000000000000019
:105290000000000000000000000000000D00000001
:1052A00012AA0F1C000040000000000001000000D6
:1052B00000000000000000000000000000000000EE
:1052C0000000000000000000000020553D400000EC
:1052D00000000000000000000000000000000000CE
:1052E00000000000000000000000000000000001BD
:1052F00008000402E50AC0280010000000000000B9
:10530000400000000000000000000000000000015C
:10531000C00000000000000000181001C52C013979
:105320006000070000000000001C180000000000E2
:1053300000000000000000000000000000008040AD
:1053400017E7C00000000080D204240040000000E5
:1053500000000000000000000000006000000000ED
:1053600000000000000000000001FF5D0000008060
:105370000A03A40740000000000100000000000034
:10538000000000000000000000000F0014000000FA
:105390000000000000001B001402031780000050F2
:1053A0000002CF00000140000000000000000000EB
:1053B000000000001000800000000000000000015C
:1053C0008000882A75F866000200040FE0180008C3
:1053D00000000000000000000400000000000010B9
:1053E00000000000000000000188000100FF03C071
:1053F00068000000102C9800000000000000000071
:10540000000000000000000000000000000000009C
:105410000000F01000040BF1EC62600010021C1D93
:10542000000000000000000000000000000000007C
:10543000000000000000000000A81CE000000000C8
:1054400000064000000000001C0088000000000072
:10545000000000000000000000000000000000004C
:1054600000000B8BFA000000010501BC00000010D9
:10547000300DA01A00000000000000000000040031
:1054800083C0000000100000000000000000009039
:10549000000002E51AC42800000223DDD9B0000094
:1054A000000000000000000000183DE000000000C7
:1054B000000000000000000078E000002C096206F7
:1054C0004010000454A70A140000800000000000EF
:1054D00000000000000000000000000000000000CC
:1054E000000000000002851E402C000001400F005B
:1054F00000000000000000000000000000000000AC
:1055000000000000000000000000000180080028EA
:10551000BF2002800000168FE58000000000000020
:10552000000000000000000000000010000000006B
:10553000000083C000000010025433420000400A03
:10554000981010F0110000000000000000000000A2
:105550000000020000000000000000183CC0000035
:1055600000002A01B060280010A994A80100800062
:105570000000000000000000000000000000040027
:105580000000000000B0C7D000000402420B14204D
:1055900000100020C900A00040080000000000002A
:1055A0000000000000000001C00000000000291DF4
:1055B000C8000001C42831BB42C007000027F580A5
:1055C000001C0000000000000000000000000000BF
:1055D0001C0000000000000083C18B0F001000B809
:1055E00073344000000AA800000000000000000022
:1055F00000000000000000000000000000000000AB
:10560000000A95CE018000000BD9B162800081AA0A
:105610009480181C002824013A500000000000006B
:1056200000000000000000000000242800D000005E
:1056300004033C0A043800100A9CFFD0E0004940F3
:105640004002A50200000030000000000000C00081
:10565000000040000140E0000000842343BC000043
:1056600002008957F181100800008030F00003002B
:10567000000000000000000000000000000083C2E5
:105680000D0000000070080C6000000B0AFB098090
:1056900000000000020F18000400000000000000DD
:1056A00000000000000000183DC070000004070169
:1056B000E207800000B1FED79E00000E000000004F
:1056C0000000000000C3C200000000000000000055
:1056D0000083C2010B0002184007B428000002A892
:1056E0001D10F00008C00000000000000000083D90
:1056F00060000000000000000000183CE081800015
:105700000D000331604000802947D98A00002C6ACF
:105710000000000002000000000000000000000087
:105720000000000083C0018000000050081C6000E1
:105730000008280859080000464000000000040046
:1057400000000000000000000000000000183CE025
:10575000D00000000507EA07800021BD47DD0A40B0
:1057600000000000000000000000000000008000B9
:105770000000000000000014010000040080007719
:10578000C02402000E14D800F00004002000000025
:1057900000000000000000380000000000000000D1
:1057A00001406C00000000010BA006405000AB6EF1
:1057B000B78000000A0000000000000008000000A0
:1057C00000800000000000000000A9400000000C64
:1057D00002CB07400000000A900BF00000086000B8
:1057E0000000000000000000000070000000000049
:1057F0000000001A9408000000C4AC3374000000DC
:1058000011979DE180000000000030F000000000D2
:1058100000EBC1000D000000000000000096808039
:1058200018000400A00400400010010020018000C6
:10583000400000020F30006800740ABC6A001001CA
:10584000C000000000000A940100B201C00A05A0D7
:1058500067850710100C800B001C00280030F0003A
:1058600002C00000000000000000000000008000F6
:10587000002CC0000000000000040000000001DF58
:1058800000F000080040020F70000400000000005B
:1058900000000000000000000010406901800000CE
:1058A000000002000000000416A00000000000003C
:1058B00000000000000000000000000000000000E8
:1058C00000000000000010000802A77F6C2C0010F0
:1058D000011CEA00F0004000000000000000000091
:1058E00000000000000000000000000000000001B7
:1058F000C0008022536E0000020022EE171800083C
:105900000000000000000000000000000000000097
:1059100000000000000000000000000002C1BE7C8A
:105920003C00000B06EF70F00000000000000000DB
:105930000000000000000000000000000000000067
:105940000000000000002C7BBE03800000B1FCFBC7
:1059500080000000000000000000000000000000C7
:105960000000000000000000000000001000000225
:10597000C137062C00000B0C6D1000000000000069
:105980000000000000000000000000000000000017
:10599000000000000000E000002C7B33E600000067
:1059A00091FCAF0E000000000000000000000000AD
:1059B000000000000000000000000000D1D4E00062
:1059C000000002C31A7C3C000002A81E1000000068
:1059D00000000000000000000000000000000000C7
:1059E00000000000000B465B00000000247F37E74A
:1059F00080000029569F0000000000000000000009
:105A00000000000000000080000000000000000313
:105A1000CD0008000400050F80200000096EE90099
:105A2000B0000000000000000000000000000000C6
:105A30000000000000000000043E5A50B000800A40
:105A4000F3EC68400000897CA000400000000000EA
:105A50000000000000000000000000000000000046
:105A6000000003E400000000802C0F800000000B09
:105A700006EA010400000000000000000000000031
:105A80000000000000000000000000043E5C000078
:105A9000000409D1F860000000B1CDE01E008000D4
:105AA00000000000000000000000000000000000F6
:105AB000000006000003CC0518000400F50B5C2074
:105AC00000100B085E000000400000000000000015
:105AD0000000000000000000000000000000043E84
